:030000000217FBE9
:0C17FB00787FE4F6D8FD75818A02184260
:0500240079796473000E
:101AA100E4F5B375B4FF1215C0121CDC121BBC7B2C
:101AB100FF7A007924755710E4FDFF121A4D0012C8
:101AC1001CC97F007E66121C89E48F57F556F555B7
:101AD100F5547558047559107D06FF12188780FE5C
:10002E000000000000000000002F0000000007008C
:10003E00070000147F147F1400242A7F2A12006206
:10004E0064081323003649552250000005030000B2
:10005E0000001C224100000041221C000014083E3A
:10006E0008140008083E0808000000A06000000800
:10007E000808080800006060000000201008040254
:10008E00003E5149453E0000427F40000042615112
:10009E004946002141454B31001814127F100027AC
:1000AE0045454539003C4A4949300001710905036F
:1000BE0000364949493600064949291E00003636A0
:1000CE000000000056360000000814224100001403
:1000DE0014141414000041221408000201510906E0
:1000EE0000324959513E007C1211127C007F494961
:1000FE004936003E41414122007F4141221C007F92
:10010E0049494941007F09090901003E4149497A9F
:10011E00007F0808087F0000417F41000020404119
:10012E003F01007F08142241007F40404040007F85
:10013E00020C027F007F0408107F003E4141413EC9
:10014E00007F09090906003E4151215E007F091911
:10015E0029460046494949310001017F0101003F0E
:10016E004040403F001F2040201F003F4038403F8E
:10017E0000631408146300070870080700615149F2
:10018E00454300007F41410000552A552A55000085
:10019E0041417F0000040201020400404040404003
:1001AE00000001020400002054545478007F48449B
:1001BE00443800384444442000384444487F0038D2
:1001CE005454541800087E0901020018A4A4A47CFB
:1001DE00007F080404780000447D400000408084C5
:1001EE007D00007F102844000000417F4000007C0D
:1001FE0004180478007C0804047800384444443819
:10020E0000FC242424180018242418FC007C080464
:10021E00040800485454542000043F444020003C3D
:10022E004040207C001C2040201C003C4030403CC4
:10023E00004428102844001CA0A0A07C0044645454
:10024E004C44141414141414000000000000000098
:10025E000000000000000000000000F80000000098
:10026E00000000333000000000100C06100C0600D9
:10027E00000000000000000040C07840C078400040
:10028E00043F04043F040400007088FC08300000A2
:10029E00001820FF211E0000F008F000E0180000FA
:1002AE0000211C031E211E0000F0088870000000B3
:1002BE001E2123241927211010160E000000000005
:1002CE000000000000000000000000E01804020022
:1002DE00000000071820400000020418E000000093
:1002EE000040201807000000404080F08040400091
:1002FE000202010F01020200000000F000000000E7
:10030E000101011F010101000000000000000000BA
:10031E0080B070000000000000000000000000002F
:10032E0000010101010101010000000000000000B8
:10033E000030300000000000000000008060180453
:10034E00006018060100000000E010080810E00030
:10035E00000F102020100F00001010F800000000F9
:10036E000020203F20200000007008080888700040
:10037E0000302824222130000030088888483000C0
:10038E000018202020110E000000C02010F80000E0
:10039E0000070424243F240000F808888808080079
:1003AE000019212020110E0000E01088881800008E
:1003BE00000F112020110E0000380808C838080060
:1003CE000000003F000000000070880808887000E0
:1003DE00001C222121221C0000E010080810E00061
:1003EE000000312222110F00000000C0C0000000EA
:1003FE00000000303000000000000080000000000F
:10040E000000806000000000000080402010080006
:10041E0000010204081020004040404040404000CF
:10042E0004040404040404000008102040800000AA
:10043E000020100804020100007048080808F000AF
:10044E000000003036010000C030C828E810E0007F
:10045E000718272423140B000000C038E00000000A
:10046E00203C23020227382008F888888870000074
:10047E00203F202020110E00C03008080808380048
:10048E00071820202010080008F808080810E000BF
:10049E00203F202020100F0008F88888E808100060
:1004AE00203F20202320180008F88888E808100034
:1004BE00203F200003000000C0300808083800006C
:1004CE0007182020221E020008F808000008F8086D
:1004DE00203F210101213F20000808F808080000F4
:1004EE000020203F2020000000000808F808080027
:1004FE00C08080807F00000008F888C0281808009F
:10050E00203F20012638200008F8080000000000D7
:10051E00203F20202020300008F8F800F8F80800CE
:10052E00203F003F003F200008F830C00008F808C8
:10053E00203F200007183F00E01008080810E000D8
:10054E000F10202020100F0008F808080808F000EF
:10055E00203F210101010000E01008080810E00012
:10056E000F18242438504F0008F8888888887000A7
:10057E00203F2000030C3020007088080808380047
:10058E000038202121221C00180808F8080818003D
:10059E000000203F2000000008F808000008F808BE
:1005AE00001F202020201F000878880000C838086F
:1005BE00000007380E010000F80800F80008F800E7
:1005CE00033C0700073C0300081868808068180881
:1005DE0020302C03032C30200838C800C8380800FF
:1005EE000000203F2000000010080808C83808004E
:1005FE002038262120201800000000FE02020200F2
:10060E000000007F40404000000C30C000000000A1
:10061E00000000010638C00000020202FE000000C9
:10062E00004040407F00000000000402020204006F
:10063E0000000000000000000000000000000000AC
:10064E008080808080808080000202040000000094
:10065E00000000000000000000008080808000008C
:10066E000019242222223F2008F80080800000007A
:10067E00003F112020110E0000000080808000003D
:10068E00000E112020201100000000808088F8004C
:10069E00000E112020103F2000008080808000007E
:1006AE00001F222222221300008080F088888818E2
:1006BE000020203F202000000000808080808000ED
:1006CE00006B94949493600008F800808080000082
:1006DE00203F210000203F2000809898000000005D
:1006EE000020203F2020000000000080989800008D
:1006FE0000C08080807F000008F8000080808000AD
:10070E00203F24022D302000000808F800000000D1
:10071E000020203F2020000080808080808080008C
:10072E00203F20003F20003F80800080808000001E
:10073E00203F210000203F200000808080800000AC
:10074E00001F202020201F008080008080000000DD
:10075E0080FFA12020110E0000000080808080000C
:10076E00000E112020A0FF808080800080808000FD
:10077E0020203F212000010000008080808080002A
:10078E000033242424241900008080E0808000009F
:10079E000000001F202000008080000000808000EC
:1007AE00001F202020103F2080808000008080804D
:1007BE0000010E30080601008080008000808080DD
:1007CE000F300C030C300F00008080008080800002
:1007DE000020312E0E31200080808000008080802D
:1007EE0080818E70180601000080808080808000DD
:1007FE000021302C2221300000000000807C0202FB
:10080E0000000000003F404000000000FF0000001C
:10081E0000000000FF0000000002027C80000000CB
:10082E000040403F000000000006010102020404E7
:08083E000000000000000000B2
:101C0900D2CB0000000000D2850000000000C28590
:0D1C19000000000000C2CB0000000000220F
:101C7300D2CB0000000000C2850000000000D28526
:061C830000000000002239
:0B1C4100121AE8121C4CAF04121AE843
:0F1C4C00D2CB0000000000C2CB0000000000223D
:071AE100AC07121C097F781D
:101AE800C2CB0000000000E4FEAD07530580BD80B6
:101AF80009D28500000000008002C28500000000B5
:101B080000EF25E0FFD2CB0000000000C2CB0000B0
:071B18000000000EBE08D220
:011B1F0022A3
:0E1D0F00121AE1121C4CE4FF121C41021C735C
:0E1D1D00121AE1121C4C7F40121C41021C7372
:101BE600121BF8E4FDFC7F02FE121BF87F10E4FDD9
:021BF600FCFEF3
:101BF800AB07AA06ED4C6003021D1DAF03121D0FB3
:011C080022B9
:101B5900A907ED24B0FFE433FEE4FDFC121BF8E90C
:101B6900240254F0C4540F7E004410FFE4FDFC121B
:101B79001BF8E92402FF7E00EF540FFFE4FDFC028D
:021B89001BF847
:101BBC00E4F9E924B0FFE433FEE4FDFC121BE6E497
:101BCC00F5527D017C00E4FFFE121BF80552E55234
:091BDC00C3948040ED09B908D959
:011BE50022DD
:04168A008F5E8D5F83
:10168E00E4F562F9EB24E0F562E55ED3947F400762
:10169E00E4F55E055F055FE56164107069AD5FAFEF
:1016AE005E121B59E4F975F010E562A429F582E487
:1016BE0035F0F583E5822456F582E5833402F58311
:1016CE00E493FF7E007D017C00121BF809B908D659
:1016DE00E55F04FDAF5E121B59E4F975F010E5628B
:1016EE00A429F582E435F0F583E582245EF582E5E2
:1016FE00833402F583E493FF7E007D017C00121B90
:10170E00F809B908D622AD5FAF5E121B59E4F97520
:10171E00F006E562A4242EF582E5F03400F583E5AB
:10172E008229F582E43583F583E493FF7E007D0103
:09173E007C00121BF809B906D663
:01174700227F
:041B20008F5E8D5FE8
:101B2400E4756301F562F561F560AF5F155FEF6021
:101B34001BAB63AA62A961A860AF5EE4FCFDFE1260
:101B44000D508F638E628D618C6080DEAF63AE62F8
:041B5400AD61AC6073
:011B5800226A
:041887008F528D539C
:10188B00E4F55DE559B41005755C088003755C06DD
:10189B00E4F55AE55AC39558506BC3E558955A145D
:1018AB00FD7F0A121B20A804A905AA06AB07AF5798
:1018BB00AE56AD55AC54120DDBE47B0AFAF9F812B7
:1018CB000DDBAF038F5BE55D7021E55814FFE55A27
:1018DB00C39F5017E55B7010E55C855AF0A4255249
:1018EB00FF8559617B208014755D01E55C855AF09D
:1018FB00A42552FFE55B2430FB855961AD531216CD
:05190B008A055A808EE0
:0119100022B4
:0A1A4D008F528D538B548A55895631
:101A5700E4F558AB54AA55A95685588275830012E8
:101A67000D23FB6034855761AD53AF5212168AE5DB
:101A770057B408047406800274082552F552E552DB
:101A8700D394784010E4F552E557B4080405538021
:091A97000405530553055880BAFB
:011AA0002223
:1015C000E4FDFC7FAEFE121BE67F40121BF4E4FD3F
:1015D000FC7FB0FE121BF8E4FDFC7F81FE121BF8BD
:1015E000E4FDFC7F80FE121BF8E4FDFC7FA1FE12EF
:1015F0001BF8E4FDFC7FA6FE121BF8E4FDFC7FA8AF
:10160000FE121BF8E4FDFC7F3FFE121BF8E4FDFC1C
:101610007FC8FE121BF8E4FDFC7FD3FE121BF8E42A
:10162000FDFCFFFE121BF8E4FDFC7FD5FE121BF84B
:10163000E4FDFC7F80FE121BF8E4FDFC7FD9FE1266
:101640001BF8E4FDFC7FF1FE121BF8E4FDFC7FDAE1
:10165000FE121BF8E4FDFC7F12FE121BF8E4FDFCF9
:101660007FDBFE121BF8E4FDFC7F30FE121BF8E46A
:10167000FDFC7F8DFE121BF8E4FDFC7F14FE121BA7
:0A168000F8E4FDFC7FAFFE021BF84A
:031D2B00562F0030
:03002B00021B8B2A
:101B8B00C0E0C0D075D00853BCEFAFBD7564008FFB
:101B9B0065536503756400E565756500F564AFBE57
:101BAB00EF2565F565E43564F564D200D0D0D0E05F
:011BBB0032F7
:06001E00EF44E8F5BC22EE
:10174800EFB408005047901755F828287302176D12
:1017580002177202177702177C0217810217860296
:10176800178B02179075910180267591028021755B
:101778009104801C759108801775911080127591DD
:1017880020800D759140800875918080037591FFC8
:10179800E4F5927590FFEFB4080050479017ABF846
:1017A8002828730217C30217C80217CD0217D202DE
:1017B80017D70217DC0217E10217E6759D0180268C
:1017C800759D028021759D04801C759D0880177584
:1017D8009D108012759D20800D759D408008759D17
:1017E800808003759DFFEF44E8F5BC439720D2AD98
:0317F800C200220A
:0811DF008F428E418D408C3FD0
:1011E700E4F545FFFEFDFCAB42AA41A940A83F122A
:1011F7000AE4748150212545F8762DAF42AE41AD02
:1012070040AC3FE4FBFA798078BF12093E8F428EEB
:10121700418D408C3F80052545F8762B0545AF422B
:10122700AE41AD40AC3F120BAC8F518E508D4F8C01
:101237004EAF42AE41AD40AC3FC004C005C006C092
:1012470007AF51AE50AD4FAC4EE4120B6EA804A9D8
:1012570005AA06AB07D007D006D005D00412084967
:101267008F428E418D408C3FE4F544E47B0AFAF9C6
:10127700F8AF51AE50AD4FAC4E120DDBAF03744615
:101287002544F8A607E4FFFEFDFCAB51AA50A94F81
:10129700A84EC3120E7B7008E54470210544801DDB
:1012A700AF51AE50AD4FAC4EE47B0AFAF9F8120DD0
:1012B700DB8F518E508D4F8C4E054480AE85444355
:1012C700E543C394085068E4FFFE7D207C41AB42B0
:1012D700AA41A940A83F12093E120BAC7446254308
:1012E700F8A607AF42AE41AD40AC3FE4FBFA792028
:1012F700784112093E8F428E418D408C3FC004C019
:1013070005C006C00774462543F8E6FCE4120B78CF
:10131700A804A905AA06AB07D007D006D005D004B4
:101327001208498F428E418D408C3F05438091E4DE
:10133700F543E543C39544501BC3E5449543FF7408
:10134700452FF8E62430FF74812545F8A6070545A3
:10135700054380DE74812545F8762E05458544438F
:10136700E543C39408501674462543F8E62430FF36
:0D13770074812545F8A6070545054380E370
:011384002246
:1014E6007510FFE4F511F515F514F513F5127F07E0
:1014F60012174812001E2000030080FAC200E511F0
:1015060025E02466F8A66408A665E4F564F565F5A5
:1015160010E51025E02466F8E6FE08E62565F56583
:10152600EE3564F5640510E510B408E5E565AE64CE
:101536007803CEC313CE13D8F9F5658E64AC64FD7B
:10154600E4120B738F158E148D138C12E4FBFA794B
:10155600A0784012093E8F158E148D138C12E4FB71
:10156600FAF97844120A478F158E148D138C128F50
:10157600198E188D178C161211DF751001E510756E
:10158600F008A4FF74812510F8E6FB7561107D064E
:1015960012168A7F017E001219850510E510C39484
:1015A6000540DA007BFF7A1D792B7557107D067F83
:0915B60028121A4D05115311070A
:0115BF002209
:101C5B0040900000358637BD4110000032463A30C7
:081C6B00303030303030300021
:06000300043200000000C1
:101C2600E4F53A438E805389F0438901758AA0759D
:0B1C36008CF6D2A9C28DD28CD2AF2256
:1019EA008F558E548D538C52E4FFFE7DC87C42ABDA
:1019FA0055AA54A953A852120AE4600F400DE4F5FF
:101A0A0055F5547553C8755242801FE4FFFE7DC8D0
:101A1A007CC2AB59AA58A957A856120AE4500BE43B
:101A2A00F559F5587557C87556C2855524855423F6
:101A3A008553228552218559288558278557268519
:031A4A00562522FC
:101CC900E4F559F558F557F556FFFEFDFC1219EAEA
:031CD900021C26C4
:040ED2008E1A8F1BCA
:100ED600E53B120EAC0F18010F39020F25030F5711
:100EE600040F43060F2F070F70080F630C0F4D0EEC
:100EF6000F88100F72180F701C0FA6200F92300F5C
:100F06007F380FBD400FB0600F9C700F707F0000E0
:100F16000F70E4F535F534F533753241020FD2E43E
:100F2600F535F5347533E0802FE4F535F534753352
:100F3600C08025E4F535F5347533A0801BE4F5351E
:100F4600F5347533808011E4F535F534753340801A
:100F560007E4F535F534F533753240806FE4F53541
:100F6600F53475338075323F80628057E4F535F588
:100F7600347533807532BF8053E4F535F534F53377
:100F86008030E4F535F5347533408026E4F535F5E3
:100F960034753380801CE4F535F5347533A0801242
:100FA600E4F535F5347533C08008E4F535F5347568
:100FB60033E07532C08015E4F535F534F533753216
:100FC600C18009E4F535F534F533F532AF2DAE2C95
:100FD600AD2BAC2AAB35AA34A933A83212084D8FF3
:100FE6002D8E2C8D2B8C2A901C5F120E8CAB2DAA6D
:100FF6002CA92BA82A12093EC004C005C006C007AA
:10100600901C5B120E8CAB35AA34A933A832120998
:101016003ED003D002D001D00012084DC004C00556
:10102600C006C007AB31AA30A92FA82EAF35AE3403
:10103600AD33AC32120849901C63120E9C12093E65
:10104600D003D002D001D00012084DC004C005C0A4
:1010560006C007AC1AAD1BEC120B73D003D002D03E
:1010660001D000120849120BAC8E1E8F1F901C5F18
:10107600120E8CAB2DAA2CA92BA82A12093EC0044D
:10108600C005C006C007901C5B120E8CAB35AA3497
:10109600A933A83212093ED003D002D001D00012E3
:1010A600084DC004C005C006C007AB31AA30A92F41
:1010B600A82EAF35AE34AD33AC32120849901C635E
:1010C600120E9C12093ED003D002D001D0001208A5
:1010D6004DC004C005C006C007AC1AAD1BEC120B10
:1010E60073D003D002D001D00012084D120BAC8E83
:1010F6001C8F1D85353185343085332F85322ED3AF
:10110600E51B9400E51A64809480406A901C67E4AD
:10111600937E00251BFFEE351AFED3E51D9FEE6478
:1011260080F8E51C64809840048E1C8F1DD3E51F53
:101136009FEE6480F8E51E64809840048E1E8F1F23
:10114600901C67E493FFC3E51B9FFFE51A9400FE1E
:10115600D3E51D9FEE6480F8E51C64809850048EEC
:101166001C8F1DD3E51F9FEE6480F8E51E648098F2
:1011760050048E1E8F1FAC1CAD1DEC120B73C004E9
:10118600C005C006C007AC1EAD1FEC120B738F590D
:101196008E588D578C56D007D006D005D00412191C
:1011A600EAAE1CEE3395E0851D578E56F555F5547F
:1011B6007558027559107D04E4FF121887AE1EEEAD
:1011C6003395E0851F578E56F555F55475580275BB
:0911D60059107D047F10021887F6
:101CEE00D2C7D2C0D2C2D2C1D2C5D2C6D2C4D2C33A
:011CFE0022C3
:1019110078767C007D007BFF7A1C79687E007F0BE6
:10192100120CFDAF3B7E02EF30E70874762EF8769D
:1019310031800674762EF87630EF25E0FF0EBE0A70
:10194100E67B007A007976755710E4FDFF121A4D97
:1019510078767642AF397E02EF30E70874762EF85A
:101961007631800674762EF87630EF25E0FF0EBED4
:101971000AE67B007A0079767557107D02E4FF1242
:031981001A4D00FC
:011984002240
:03000B0002138558
:10138500C0E0C0F0C083C082C0D075D000C000C02E
:1013950001C002C003C004C005C006C007C28C75E9
:1013A5008AA0758CF6D28C053AE53AC3946440035D
:1013B500753A00E4FFFEFDFCAB24AA23A922A8216F
:1013C500120AE4401FAC3AE4120B78AB24AA23A915
:1013D50022A821120AE460444042D2C5C2C6D2C442
:1013E500C2C38040AF24AE23AD22AC21120B5DC039
:1013F50004C005C006C007AC3AE4120B78A804A9DE
:1014050005AA06AB07D007D006D005D004120AE41A
:10141500500AC2C5D2C6C2C4D2C38008C2C5C2C69C
:10142500C2C4C2C3E4FFFEFDFCAB28AA27A926A8B7
:1014350025120AE4401FAC3AE4120B78AB28AA2720
:10144500A926A825120AE460444042D2C7C2C0D2E8
:10145500C2C2C18040AF28AE27AD26AC25120B5DB8
:10146500C004C005C006C007AC3AE4120B78A80456
:10147500A905AA06AB07D007D006D005D004120AE5
:10148500E4500AC2C7D2C0C2C2D2C18008C2C7C214
:10149500C0C2C2C2C1853736853837E5F8547FF5F5
:1014A5003845365537FFE53655384FF53B853D3CD4
:1014B500853E3DE5E8547FF53E453C553DFFE53C21
:1014C500553E4FF53900D007D006D005D004D003DE
:1014D500D002D001D000D0D0D082D083D0F0D0E0DF
:0114E50032D4
:10198500EF1FAC0670011E4C6059E4FDFC00000021
:101995000000000000000000000000000000000042
:1019A5000000000000000000000000000000000032
:1019B5000000000000000000000000000000000022
:1019C5000000000000000000000000000000000012
:1019D50000000000000DBD00010CED64C84C70ADA9
:0419E50000809D00E1
:0119E90022DB
:101CDC00538EBF53890F438910758BE0758DB1C23C
:021CEC008F2245
:03001B00021CFFC5
:101CFF00C28E758BE0758DB1D28E304902D24932CA
:0D000E00E4F5C7F5C5F5C675C380F5C4223D
:101C890075C78075C5018FC48EC375C65A75C6A53B
:061C990000AFC202000EC4
:101C9F0075C78075C5028FC48EC38DC275C65A7540
:061CAF00C6A50002000EB4
:101CB50075C78075C5038FC48EC375C65A75C6A50D
:041CC5000002000E0B
:10084600020C18E86480F8E933E83360110460F0BC
:10085600ED33EC337009E8FCE9FDEAFEEBFF220418
:1008660060DED3EB9FEA9EE99DE8C2E78CF0C2F713
:1008760095F0400CE8CCF8E9CDF9EACEFAEBCFFBDF
:10088600120BE385D0F05804700320D5B3E804704A
:10089600075002B2D5020C2292D5EC0460F7E4CCE4
:1008A600C0E0C398F8603B94186008400DD0E0FBA8
:1008B600020BFAE4FBFAC9FC8028E830E406E4C936
:1008C600FBE4CAFCE830E305E4C9CACBFCE85407FC
:1008D6006010F8C3E913F9EA13FAEB13FBEC13FC07
:1008E600D8F130F52FC3E49CFCEF9BFFEE9AFEEDAA
:1008F60099FDD0E0FBEF4E4D4C701222DB03020C4B
:100906001FEC2CFCEF33FFEE33FEED33FDED30E74D
:10091600EB020BFAEF2BFFEE3AFEED39FDD0E0FBD2
:1009260050130BBB0003020C22ED13FDEE13FEEF7A
:0809360013FFEC13FC020BFAA5
:10093E00EC4D6011E8497017ED33EC3304600DE4B3
:10094E00FCFFFEFD22E933E8330470F8020C1812A6
:10095E000BE358046009E4CC2481500628500902A8
:10096E000C22284003020C1FC0E0EB4A7044B980F1
:10097E0006D0E0FB020C0EEF4E701CBD8008EBFFA4
:10098E00EAFEE9FD80EBE98DF0A4FEE5F0020A2710
:10099E00E9CDF9EAFEEBFFEF89F0A4FCE5F0CE8994
:1009AE00F0A42EFFE435F0CD89F0A42DFEE435F051
:1009BE008067EF4E7005BD80D780C3EF8BF0A4AC7F
:1009CE00F0EE8BF0A42CFCE435F0F8EF8AF0A42CBA
:1009DE00E5F038FCE433CB8DF0A42CFCE5F03BF8CD
:1009EE00EE8AF0A42CFCE5F038F8E433CF89F0A4BD
:1009FE002CFCE5F038CF3400CE89F0A42FFFE5F0C3
:100A0E003EFEE433C98DF0A42EFEE5F039CD8AF01A
:100A1E00A42FFFE5F03EFEE43DFD33D0E0FB500792
:100A2E000BBB000F020C22EC2CFCEF33FFEE33FE5F
:060A3E00ED33FD020BFA8E
:100A4400020C22EC5D046005E859047003020C18E2
:100A5400120BE3580460F6EC4860F2EC7004FDFEFF
:100A6400FF22C860DB2481C85009C3986002500685
:100A7400020C1F9850CAF582E9294B4A7005AB82D3
:100A8400020C0E75F0007C1A7880C3EF9BEE9AED91
:100A940099400DC3EF9BFFEE9AFEED99FDE842F0FD
:100AA400DC23ACF0D0E0FFD0E0FED0E0FDAB822050
:100AB400E7101BEB60BAEC2CFCEF33FFEE33FEEDDA
:100AC40033FD020BFAE803F830E705C0F075F000D7
:100AD400EF2FFFEE33FEED33FD40B830E7C280AABE
:100AE40074F8CC6480CCC86480C8F58204604FC3B9
:100AF400EB9FF5F0EA9E42F0E99D42F0E89C45F058
:100B0400603C501DE5825FFFE582D313CB5BCBF4E1
:100B14002B5582FB50280ABA002409B9002008800A
:100B24001DE5825BFBE582D313CF5FCFF4C3132FA4
:100B34005582FF50090EBE00050DBD00010CC3EB2C
:100B44009FF5F0EA9E42F0E99D42F0E89C45F06092
:090B540007CC4820E701B3EC22B4
:100B5D00ED33EC33600A047003BD8004ECB2E7FCA6
:010B6D002265
:100B6E0075F020800E75F010800575F0087D007E02
:100B7E00007F003392D530D503120E6DEC3340104A
:100B8E00EF33FFEE33FEED33FDEC33FCD5F0ED220B
:0E0B9E00E5F0247EA2D513CC92E7CDCEFF2247
:100BAC00EDD2E7CD33EC3392D524814006E4FFFE41
:100BBC00FDFC22FCE4CFCECDCC24E0501174FF80A0
:100BCC00EDC3CC13CCCD13CDCE13CECF13CF04703D
:070BDC00F030D5DE020E6DC2
:100BE300E9D2E7C933E833F892D5EDD2E7CD33EC58
:070BF30033FC5002B2D522D1
:100BFA00EC30E7100FBF000C0EBE00080DBD00045C
:100C0A000BEB6014A2D5EB13FCED92E7FD2274FF07
:100C1A00FCFDFEFF22E480F8A2D574FF13FC7D8060
:030C2A00E480EF74
:10180700021AA1E493A3F8E493A34003F68001F23C
:1018170008DFF48029E493A3F85407240CC8C333E2
:10182700C4540F4420C8834004F456800146F6DFB1
:10183700E4800B0102040810204080900003E47E3E
:10184700019360BCA3FF543F30E509541FFEE493A6
:10185700A360010ECF54C025E060A840B8E493A36D
:10186700FAE493A3F8E493A3C8C582C8CAC583CA98
:10187700F0A3C8C582C8CAC583CADFE9DEE780BE50
:0100090000F6
:100C2D00E709F608DFFA8046E709F208DFFA803EA9
:100C3D0088828C83E709F0A3DFFA8032E309F60896
:100C4D00DFFA8078E309F208DFFA807088828C83FE
:100C5D00E309F0A3DFFA806489828A83E0A3F608B2
:100C6D00DFFA805889828A83E0A3F208DFFA804C8C
:100C7D0080D280FA80C680D4806980F28033801063
:100C8D0080A680EA809A80A880DA80E280CA8033CC
:100C9D0089828A83ECFAE493A3C8C582C8CCC58344
:100CAD00CCF0A3C8C582C8CCC583CCDFE9DEE78014
:100CBD000D89828A83E493A3F608DFF9ECFAA9F093
:100CCD00EDFB2289828A83ECFAE0A3C8C582C8CCE9
:100CDD00C583CCF0A3C8C582C8CCC583CCDFEADE02
:100CED00E880DB89828A83E493A3F208DFF980CC64
:100CFD0088F0EF60010E4E60C388F0ED2402B4045D
:100D0D000050B9F582EB2402B4040050AF23234503
:060D1D008223900C7D739F
:100D2300BB010CE58229F582E5833AF583E0225085
:100D330006E92582F8E622BBFE06E92582F8E222CF
:0D0D4300E58229F582E5833AF583E49322E9
:100D5000E88FF0A4CC8BF0A42CFCE98EF0A42CFC42
:100D60008AF0EDA42CFCEA8EF0A4CDA8F08BF0A4C0
:100D70002DCC3825F0FDE98FF0A42CCD35F0FCEB1F
:100D80008EF0A4FEA9F0EB8FF0A4CFC5F02ECD39E4
:0F0D9000FEE43CFCEAA42DCE35F0FDE43CFC2251
:100D9F0075F008758200EF2FFFEE33FECD33CDCC0B
:100DAF0033CCC58233C5829BED9AEC99E58298408E
:100DBF000CF582EE9BFEED9AFDEC99FC0FD5F0D66B
:100DCF00E4CEFBE4CDFAE4CCF9A88222B800C1B995
:100DDF000059BA002DEC8BF084CFCECDFCE5F0CBD3
:100DEF00F97818EF2FFFEE33FEED33FDEC33FCEB0C
:100DFF0033FB10D703994004EB99FB0FD8E5E4F9C7
:100E0F00FA227818EF2FFFEE33FEED33FDEC33FCB3
:100E1F00C933C910D7059BE99A4007EC9BFCE99AA7
:100E2F00F90FD8E0E4C9FAE4CCFB2275F010EF2FEC
:100E3F00FFEE33FEED33FDCC33CCC833C810D707EC
:100E4F009BEC9AE899400AED9BFDEC9AFCE899F827
:0E0E5F000FD5F0DAE4CDFBE4CCFAE4C8F922BA
:0E0E6D00C3E49FFFE49EFEE49DFDE49CFC2296
:100E7B00EB9FF5F0EA9E42F0E99D42F0E89C45F0CD
:010E8B002244
:100E8C00E493FC740193FD740293FE740393FF22AC
:100E9C00E493F8740193F9740293FA740393FB22AC
:100EAC00D083D082F8E4937012740193700DA3A3D5
:100EBC0093F8740193F5828883E4737402936860E9
:060ECC00EFA3A3A380DFE9
:00000001FF
