:0300000002187A69
:0C187A00787FE4F6D8FD75819B0218C150
:05001E00797964730014
:101B7000E4F5B375B4FF12163F121D9B121CDE7BF9
:101B8000FF7A00791E753A10E4FDFF12002E001254
:101B90001EC1121567E52BC4540F60F67B007A0056
:0A1BA0007992121ED4532B6F80E8D7
:100096000000000000000000002F00000000070024
:1000A600070000147F147F1400242A7F2A1200629E
:1000B600640813230036495522500000050300004A
:1000C60000001C224100000041221C000014083ED2
:1000D60008140008083E0808000000A06000000898
:1000E60008080808000060600000002010080402EC
:1000F600003E5149453E0000427F400000426151AA
:100106004946002141454B31001814127F10002743
:1001160045454539003C4A49493000017109050306
:1001260000364949493600064949291E0000363637
:10013600000000005636000000081422410000149A
:100146001414141400004122140800020151090677
:1001560000324959513E007C1211127C007F4949F8
:100166004936003E41414122007F4141221C007F29
:1001760049494941007F09090901003E4149497A37
:10018600007F0808087F0000417F410000204041B1
:100196003F01007F08142241007F40404040007F1D
:1001A600020C027F007F0408107F003E4141413E61
:1001B600007F09090906003E4151215E007F0919A9
:1001C60029460046494949310001017F0101003FA6
:1001D6004040403F001F2040201F003F4038403F26
:1001E600006314081463000708700807006151498A
:1001F600454300007F41410000552A552A5500001D
:1002060041417F000004020102040040404040409A
:10021600000001020400002054545478007F484432
:10022600443800384444442000384444487F003869
:100236005454541800087E0901020018A4A4A47C92
:10024600007F080404780000447D4000004080845C
:100256007D00007F102844000000417F4000007CA4
:1002660004180478007C08040478003844444438B0
:1002760000FC242424180018242418FC007C0804FC
:10028600040800485454542000043F444020003CD5
:100296004040207C001C2040201C003C4030403C5C
:1002A600004428102844001CA0A0A07C00446454EC
:1002B6004C44141414141414000000000000000030
:1002C6000000000000000000000000F80000000030
:1002D600000000333000000000100C06100C060071
:1002E600000000000000000040C07840C0784000D8
:1002F600043F04043F040400007088FC083000003A
:10030600001820FF211E0000F008F000E018000091
:1003160000211C031E211E0000F00888700000004A
:100326001E2123241927211010160E00000000009C
:100336000000000000000000000000E018040200B9
:10034600000000071820400000020418E00000002A
:100356000040201807000000404080F08040400028
:100366000202010F01020200000000F0000000007E
:100376000101011F01010100000000000000000052
:1003860080B07000000000000000000000000000C7
:100396000001010101010101000000000000000050
:1003A60000303000000000000000000080601804EB
:1003B600006018060100000000E010080810E000C8
:1003C600000F102020100F00001010F80000000091
:1003D6000020203F202000000070080808887000D8
:1003E6000030282422213000003008888848300058
:1003F6000018202020110E000000C02010F8000078
:1004060000070424243F240000F808888808080010
:100416000019212020110E0000E010888818000025
:10042600000F112020110E0000380808C8380800F7
:100436000000003F00000000007088080888700077
:10044600001C222121221C0000E010080810E000F8
:100456000000312222110F00000000C0C000000081
:1004660000000030300000000000008000000000A6
:10047600000080600000000000008040201008009E
:100486000001020408102000404040404040400067
:100496000404040404040400000810204080000042
:1004A6000020100804020100007048080808F00047
:1004B6000000003036010000C030C828E810E00017
:1004C6000718272423140B000000C038E0000000A2
:1004D600203C23020227382008F88888887000000C
:1004E600203F202020110E00C030080808083800E0
:1004F600071820202010080008F808080810E00057
:10050600203F202020100F0008F88888E8081000F7
:10051600203F20202320180008F88888E8081000CB
:10052600203F200003000000C03008080838000003
:1005360007182020221E020008F808000008F80804
:10054600203F210101213F20000808F8080800008B
:100556000020203F2020000000000808F8080800BE
:10056600C08080807F00000008F888C02818080036
:10057600203F20012638200008F80800000000006F
:10058600203F20202020300008F8F800F8F8080066
:10059600203F003F003F200008F830C00008F80860
:1005A600203F200007183F00E01008080810E00070
:1005B6000F10202020100F0008F808080808F00087
:1005C600203F210101010000E01008080810E000AA
:1005D6000F18242438504F0008F88888888870003F
:1005E600203F2000030C30200070880808083800DF
:1005F6000038202121221C00180808F808081800D5
:100606000000203F2000000008F808000008F80855
:10061600001F202020201F000878880000C8380806
:10062600000007380E010000F80800F80008F8007E
:10063600033C0700073C0300081868808068180818
:1006460020302C03032C30200838C800C838080096
:100656000000203F2000000010080808C8380800E5
:100666002038262120201800000000FE0202020089
:100676000000007F40404000000C30C00000000039
:10068600000000010638C00000020202FE00000061
:10069600004040407F000000000004020202040007
:1006A6000000000000000000000000000000000044
:1006B600808080808080808000020204000000002C
:1006C6000000000000000000000080808080000024
:1006D6000019242222223F2008F800808000000012
:1006E600003F112020110E000000008080800000D5
:1006F600000E112020201100000000808088F800E4
:10070600000E112020103F20000080808080000015
:10071600001F222222221300008080F08888881879
:100726000020203F20200000000080808080800084
:10073600006B94949493600008F800808080000019
:10074600203F210000203F200080989800000000F4
:100756000020203F20200000000000809898000024
:1007660000C08080807F000008F800008080800044
:10077600203F24022D302000000808F80000000069
:100786000020203F20200000808080808080800024
:10079600203F20003F20003F8080008080800000B6
:1007A600203F210000203F20000080808080000044
:1007B600001F202020201F00808000808000000075
:1007C60080FFA12020110E000000008080808000A4
:1007D600000E112020A0FF80808080008080800095
:1007E60020203F21200001000000808080808000C2
:1007F6000033242424241900008080E08080000037
:100806000000001F20200000808000000080800083
:10081600001F202020103F208080800000808080E4
:1008260000010E3008060100808000800080808074
:100836000F300C030C300F00008080008080800099
:100846000020312E0E3120008080800000808080C4
:1008560080818E7018060100008080808080800074
:100866000021302C2221300000000000807C020292
:1008760000000000003F404000000000FF000000B4
:1008860000000000FF0000000002027C8000000063
:100896000040403F0000000000060101020204047F
:0808A60000000000000000004A
:101D2B00D2CB0000000000D2850000000000C2856D
:0D1D3B000000000000C2CB000000000022EC
:101E2D00D2CB0000000000C2850000000000D2856A
:061E3D000000000000227D
:0B1DB600121B38121DC1AF04121B38B5
:0F1DC100D2CB0000000000C2CB000000000022C7
:071B3100AC07121D2B7F78A9
:101B3800C2CB0000000000E4FEAD07530580BD8065
:101B480009D28500000000008002C2850000000064
:101B580000EF25E0FFD2CB0000000000C2CB000060
:071B68000000000EBE08D2D0
:011B6F002253
:0E1F2B00121B31121DC1E4FF121DB6021E2D45
:0E1F3900121B31121DC17F40121DB6021E2D5B
:101D0800121D1AE4FDFC7F02FE121D1A7F10E4FD6D
:021D1800FCFECF
:101D1A00AB07AA06ED4C6003021F39AF03121F2B53
:011D2A002296
:101C4F00A907ED24B0FFE433FEE4FDFC121D1AE9F1
:101C5F00240254F0C4540F7E004410FFE4FDFC1224
:101C6F001D1AE92402FF7E00EF540FFFE4FDFC0272
:021C7F001D1A2C
:101CDE00E4F9E924B0FFE433FEE4FDFC121D08E450
:101CEE00F52C7D017C00E4FFFE121D1A052CE52C5F
:091CFE00C3948040ED09B908D936
:011D070022B9
:041709008F3C8D3D47
:10170D00E4F540F9EB24E0F540E53CD3947F400748
:10171D00E4F53C053D053DE53F64107069AD3DAF19
:10172D003C121C4FE4F975F010E540A429F582E454
:10173D0035F0F583E58224BEF582E5833402F58329
:10174D00E493FF7E007D017C00121D1A09B908D6B5
:10175D00E53D04FDAF3C121C4FE4F975F010E5407A
:10176D00A429F582E435F0F583E58224C6F582E5FA
:10177D00833402F583E493FF7E007D017C00121D0E
:10178D001A09B908D622AD3DAF3C121C4FE4F975CC
:10179D00F006E540A42496F582E5F03400F583E5E6
:1017AD008229F582E43583F583E493FF7E007D0184
:0917BD007C00121D1A09B906D6C0
:0117C6002200
:041BAA008F5D8D5E60
:101BAE00E4756201F561F560F55FAF5E155EEF609D
:101BBE001BAB62AA61A960A85FAF5DE4FCFDFE12DB
:101BCE000DD18F628E618D608C5F80DEAF62AE61F3
:041BDE00AD60AC5FEB
:011BE20022E0
:041906008F108D11A0
:10190A00E4F51BE517B41005751A088003751A0665
:10191A00E4F518E518C39516506BC3E51695181427
:10192A00FD7F0A121BAAA804A905AA06AB07AF15D0
:10193A00AE14AD13AC12120E5CE47B0AFAF9F8127B
:10194A000E5CAF038F19E51B7021E51614FFE5182D
:10195A00C39F5017E5197010E51A8518F0A42510D1
:10196A00FF85173F7B208014751B01E51A8518F047
:10197A00A42510FFE5192430FB85173FAD11121776
:05198A00090518808E24
:01198F002235
:0A002E008F358D368B378A388939FB
:10003800E4F53BAB37AA38A939853B8275830012B2
:100048000DA4FB6034853A3FAD36AF35121709E58C
:100058003AB408047406800274082535F535E53588
:10006800D394784010E4F535E53AB40804053680B1
:090078000405360536053B80BA8B
:01008100225C
:10163F00E4FDFC7FAEFE121D087F40121D16E4FD77
:10164F00FC7FB0FE121D1AE4FDFC7F81FE121D1AF5
:10165F00E4FDFC7F80FE121D1AE4FDFC7FA1FE124B
:10166F001D1AE4FDFC7FA6FE121D1AE4FDFC7FA8E7
:10167F00FE121D1AE4FDFC7F3FFE121D1AE4FDFC55
:10168F007FC8FE121D1AE4FDFC7FD3FE121D1AE463
:10169F00FDFCFFFE121D1AE4FDFC7FD5FE121D1A84
:1016AF00E4FDFC7F80FE121D1AE4FDFC7FD9FE12C3
:1016BF001D1AE4FDFC7FF1FE121D1AE4FDFC7FDA1A
:1016CF00FE121D1AE4FDFC7F12FE121D1AE4FDFC32
:1016DF007FDBFE121D1AE4FDFC7F30FE121D1AE4A3
:1016EF00FDFC7F8DFE121D1AE4FDFC7F14FE121D02
:0A16FF001AE4FDFC7FAFFE021D1A85
:03002600562F0052
:031F4700011E0078
:03002B00021C8133
:101C8100C0E0C0D075D00853BCEFAFBD751C008F4C
:101C91001D531D03751C00E51D751D00F51CAFBE10
:101CA100EF251DF51DE4351CF51CD200D0D0D0E088
:011CB1003200
:06000300EF44E8F5BC2209
:1017C700EFB4080050479017D4F82828730217EC95
:1017D7000217F10217F60217FB021800021805029A
:1017E700180A02180F7591018026759102802175DC
:1017F7009104801C7591088017759110801275915E
:1018070020800D759140800875918080037591FF48
:10181700E4F5927590FFEFB40800504790182AF846
:1018270028287302184202184702184C021851025E
:10183700185602185B021860021865759D0180260C
:10184700759D028021759D04801C759D0880177504
:101857009D108012759D20800D759D408008759D97
:10186700808003759DFFEF44E8F5BC439720D2AD18
:03187700C200228A
:081260008F388E378D368C3576
:10126800E4F53BFFFEFDFCAB38AA37A936A83512DA
:101278000B4C74885021253BF8762DAF38AE37AD2E
:1012880036AC35E4FBFA798078BF1209A68F388E20
:10129800378D368C358005253BF8762B053BAF38E6
:1012A800AE37AD36AC35120C148F478E468D458C53
:1012B80044AF38AE37AD36AC35C004C005C006C043
:1012C80007AF47AE46AD45AC44E4120BD6A804A917
:1012D80005AA06AB07D007D006D005D0041208B17E
:1012E8008F388E378D368C35E4F53AE47B0AFAF977
:1012F800F8AF47AE46AD45AC44120E5CAF03743C44
:10130800253AF8A607E4FFFEFDFCAB47AA46A94527
:10131800A844C3120EFC7008E53A7021053A801DF6
:10132800AF47AE46AD45AC44E47B0AFAF9F8120E75
:101338005C8F478E468D458C44053A80AE853A3998
:10134800E539C394085068E4FFFE7D207C41AB3842
:10135800AA37A936A8351209A6120C14743C2539E7
:10136800F8A607AF38AE37AD36AC35E4FBFA7920CE
:1013780078411209A68F388E378D368C35C004C057
:1013880005C006C007743C2539F8E6FCE4120BE0FA
:10139800A804A905AA06AB07D007D006D005D00433
:1013A8001208B18F388E378D368C3505398091E427
:1013B800F539E539C3953A501BC3E53A9539FF74B9
:1013C8003B2FF8E62430FF7488253BF8A607053B39
:1013D800053980DE7488253BF8762E053B853A3939
:1013E800E539C394085016743C2539F8E62430FFD3
:0D13F8007488253BF8A607053B053980E306
:0114050022C4
:10156700752CFFE4F530F52FF52EF52D7F071217B3
:10157700C71200032000030080FAC200E51E25E021
:10158700246DF8A61C08A61DE4F51CF51DF52CE531
:101597002C25E0246DF8E6FE08E6251DF51DEE3541
:1015A7001CF51C052CE52CB408E5E51DAE1C7803DD
:1015B700CEC313CE13D8F9F51D8E1CAC1CFDE41257
:1015C7000BDB8F308E2F8D2E8C2DE4FBFA79A078D4
:1015D700401209A68F308E2F8D2E8C2DE4FBFAF941
:1015E7007844120AAF8F308E2F8D2E8C2D8F348E2C
:1015F700338D328C31121260752C01E52C75F00891
:10160700A4FF7488252CF8E6FB753F107D0612179A
:10161700097F017E00121A04052CE52CC3940540AE
:10162700DA007BFF7A007926753A107D067F28124B
:07163700002E051E531E07E3
:01163E002289
:101DD00040900000358637BD4110000032463A3051
:081DE0003030303030303000AB
:061F4A000450000000003D
:101D6500E4F558438E805389F0438901758AA0753F
:0B1D75008CF6D2A9C28DD28CD2AF2216
:101ACE008F2F8E2E8D2D8C2CE4FFFE7DC87C42AB8D
:101ADE002FAA2EA92DA82C120B4C600F400DE4F549
:101AEE002FF52E752DC8752C42801FE4FFFE7DC884
:101AFE007CC2AB33AA32A931A830120B4C500BE486
:101B0E00F533F5327531C87530C2852F24852E23F5
:101B1E00852D22852C2185332885322785312685F2
:031B2E003025223D
:101EC100E4F533F532F531F530FFFEFDFC121ACEA3
:031ED100021D658A
:040F53008E638F64B6
:100F5700E559120F2D0F99010FBA020FA6030FD8EB
:100F6700040FC4060FB0070FF1080FE40C0FCE0EE5
:100F77001009100FF3180FF11C1027201013301051
:100F87000038103E40103160101D700FF17F0000D7
:100F97000FF1E4F553F552F551755041021053E442
:100FA700F553F5527551E0802FE4F553F55275511D
:100FB700C08025E4F553F5527551A0801BE4F55325
:100FC700F5527551808011E4F553F5527551408003
:100FD70007E4F553F552F551755040806FE4F5532A
:100FE700F55275518075503F80628057E4F553F58F
:100FF700527551807550BF8053E4F553F552F55142
:101007008030E4F553F5527551408026E4F553F5E9
:1010170052755180801CE4F553F5527551A080122A
:10102700E4F553F5527551C08008E4F553F5527550
:1010370051E07550C08015E4F553F552F5517550E0
:10104700C18009E4F553F552F551F550AF4BAE4A5F
:10105700AD49AC48AB53AA52A951A8501208B58F55
:101067004B8E4A8D498C48901DD4120F0DAB4BAA5D
:101077004AA949A8481209A6C004C005C006C00766
:10108700901DD0120F0DAB53AA52A951A8501209A7
:10109700A6D003D002D001D0001208B5C004C00505
:1010A700C006C007AB4FAA4EA94DA84CAF53AE52CE
:1010B700AD51AC501208B1901DD8120F1D1209A6E0
:1010C700D003D002D001D0001208B5C004C005C0BB
:1010D70006C007AC63AD64EC120BDBD003D002D0C3
:1010E70001D0001208B1120C148E678F68901DD4BE
:1010F700120F0DAB4BAA4AA949A8481209A6C0046A
:10110700C005C006C007901DD0120F0DAB53AA52E1
:10111700A951A8501209A6D003D002D001D00012BD
:1011270008B5C004C005C006C007AB4FAA4EA94DFD
:10113700A84CAF53AE52AD51AC501208B1901DD868
:10114700120F1D1209A6D003D002D001D000120839
:10115700B5C004C005C006C007AC63AD64EC120B94
:10116700DBD003D002D001D0001208B5120C148EC8
:10117700658F6685534F85524E85514D85504CD3AB
:10118700E5649400E56364809480406A901DDCE424
:10119700937E002564FFEE3563FED3E5669FEE641C
:1011A70080F8E56564809840048E658F66D3E568AE
:1011B7009FEE6480F8E56764809840048E678F68C7
:1011C700901DDCE493FFC3E5649FFFE5639400FE95
:1011D700D3E5669FEE6480F8E56564809850048ED9
:1011E700658F66D3E5689FEE6480F8E5676480984D
:1011F70050048E678F68AC65AD66EC120BDBC004DC
:10120700C005C006C007AC67AD68EC120BDB8F33B7
:101217008E328D318C30D007D006D005D004121A0B
:10122700CEAE65EE3395E08566158E14F513F5128F
:101237007516027517107D04E4FF121906AE67EEE6
:101247003395E08568158E14F513F512751602753A
:0912570017107D047F1002190636
:101F0B00D2C7D2C0D2C2D2C1D2C5D2C6D2C4D2C31A
:011F1B0022A3
:10199000787D7C007D007BFF7A1D79DD7E007F0BEA
:1019A000120D65AF597E02EF30E708747D2EF87690
:1019B000318006747D2EF87630EF25E0FF0EBE0AEA
:1019C000E67B007A00797D753A10E4FDFF12002E67
:1019D000787D7642AF577E02EF30E708747D2EF8AF
:1019E00076318006747D2EF87630EF25E0FF0EBE4E
:1019F0000AE67B007A00797D753A107D02E4FF12D9
:031A0000002E00B5
:011A030022C0
:03000B00021406D6
:10140600C0E0C0F0C083C082C0D075D000C000C0AC
:1014160001C002C003C004C005C006C007C28C7567
:101426008AA0758CF6D28C0558E558C3946440039F
:10143600755800E4FFFEFDFCAB24AA23A922A821CF
:10144600120B4C401FAC58E4120BE0AB24AA23A9A4
:1014560022A821120B4C60444042D2C5C2C6D2C457
:10146600C2C38040AF24AE23AD22AC21120BC5C04F
:1014760004C005C006C007AC58E4120BE0A804A9D6
:1014860005AA06AB07D007D006D005D004120B4C30
:10149600500AC2C5D2C6C2C4D2C38008C2C5C2C61B
:1014A600C2C4C2C3E4FFFEFDFCAB28AA27A926A836
:1014B60025120B4C401FAC58E4120BE0AB28AA27B0
:1014C600A926A825120B4C60444042D2C7C2C0D2FE
:1014D600C2C2C18040AF28AE27AD26AC25120BC5CF
:1014E600C004C005C006C007AC58E4120BE0A8044F
:1014F600A905AA06AB07D007D006D005D004120B63
:101506004C500AC2C7D2C0C2C2D2C18008C2C7C22A
:10151600C0C2C2C2C1855554855655E5F8547FF5FB
:101526005645545555FFE55455564FF559855B5A62
:10153600855C5BE5E8547FF55C455A555BFFE55AEB
:10154600555C4FF55700D007D006D005D004D00320
:10155600D002D001D000D0D0D082D083D0F0D0E05D
:011566003252
:041F50000229000062
:101A0400EF1FAC0670011E4C6059E4FDFC000000A1
:101A140000000000000000000000000000000000C2
:101A240000000000000000000000000000000000B2
:101A340000000000000000000000000000000000A2
:101A44000000000000000000000000000000000092
:101A540000000000000DBD00010CED64C84C70AD29
:041A640000809D0061
:011A6800225B
:101EE700538EBF53890F438910758BE0758DB1C22F
:021EF7008F2238
:03001B00021DE8DB
:101DE800C0E0C28E758BE0758DB1D28E052AE52ACA
:071DF80070020529D0E03262
:0D000E00E4F5C7F5C5F5C675C380F5C4223D
:101E430075C78075C5018FC48EC375C65A75C6A57F
:061E530000AFC202000E08
:101E590075C78075C5028FC48EC38DC275C65A7584
:061E6900C6A50002000EF8
:101E850075C78075C5038FC48EC375C65A75C6A53B
:041E95000002000E39
:0F1F1C00E559B47F097F327E00120F5380F22205
:101D8000751F08E51F60137F327E00120F53E5595F
:0A1D9000B47FF0151F121F1C80E93C
:011D9A002226
:101A6900EF1FAC0670011E4C6059E4FDFC0000003C
:101A7900000000000000000000000000000000005D
:101A8900000000000000000000000000000000004D
:101A9900000000000000000000000000000000003D
:101AA900000000000000000000000000000000002D
:101AB90000000000000DBD00010CED64C84C70ADC4
:041AC90000809D00FC
:011ACD0022F6
:03002300021BE3DA
:0D1BE300C0E0C0D075D000C000C006C00733
:101BF000C298AF99305C0AAE6C056C74922EF8A650
:101C000007BFAA05D25C756C00BFBB04C25CD25D85
:0B1C1000D007D006D000D0D0D0E032CA
:101EF900C2AC8F993099FDC299D2AC7F017E0002A4
:021F09001A6953
:101ED400120D8BFF600C121EF9740129F9E43AFA11
:031EE40080EE226B
:101D9B00759850438E40538EFE53890F758B8F75FC
:0B1DAB008DFDC2ABD28EC25CD2AC2218
:03008B00021DFF54
:101DFF00C0E0E5AC30E00353ACFEE5AC30E1055399
:071E0F00ACFDC25AD0E03225
:101E9900205AFDEF30D00543AC08800353ACF7D28C
:041EA9005A8FAD227D
:101C1B00120D8BFF6014121E99007F017E00121AA9
:101C2B0069740129F9E43AFA80E67F0D121E9900D6
:101C3B007F017E00121A697F0A121E99007F017EB6
:041C4B0000021A6910
:101D480043BA020075ACDA0075D5CC0075D4FF0033
:0D1D580043D1020043D1080075AF080022FE
:03009300021E1634
:101E1600C0E0E58430E0035384FEE58430E10553F9
:071E260084FDC25BD0E03235
:101EAD00205BFDEF30D00543840880035384F7D2C7
:041EBD005BF585222A
:101CB2008B698A6A896BAB69AA6AA96B120D8B6000
:101CC2001A056BE56B7002056A14F9120D8BFF128F
:0C1CD2001EAD7F0A7E00121A6980DB2222
:101E6F0043BA047584DA75D3CC75D2FF43D12043BE
:061E7F00D18075AF1022B6
:1008AE00020C80E86480F8E933E83360110460F0EC
:1008BE00ED33EC337009E8FCE9FDEAFEEBFF2204B0
:1008CE0060DED3EB9FEA9EE99DE8C2E78CF0C2F7AB
:1008DE0095F0400CE8CCF8E9CDF9EACEFAEBCFFB77
:1008EE00120C4B85D0F05804700320D5B3E8047079
:1008FE00075002B2D5020C8A92D5EC0460F7E4CC14
:10090E00C0E0C398F8603B94186008400DD0E0FB3F
:10091E00020C62E4FBFAC9FC8028E830E406E4C964
:10092E00FBE4CAFCE830E305E4C9CACBFCE8540793
:10093E006010F8C3E913F9EA13FAEB13FBEC13FC9E
:10094E00D8F130F52FC3E49CFCEF9BFFEE9AFEED41
:10095E0099FDD0E0FBEF4E4D4C701222DB03020CE2
:10096E0087EC2CFCEF33FFEE33FEED33FDED30E77D
:10097E00EB020C62EF2BFFEE3AFEED39FDD0E0FB01
:10098E0050130BBB0003020C8AED13FDEE13FEEFAA
:08099E0013FFEC13FC020C62D4
:1009A600EC4D6011E8497017ED33EC3304600DE44B
:1009B600FCFFFEFD22E933E8330470F8020C8012D6
:1009C6000C4B58046009E4CC2481500628500902D7
:1009D6000C8A284003020C87C0E0EB4A7044B980B9
:1009E60006D0E0FB020C76EF4E701CBD8008EBFFD4
:1009F600EAFEE9FD80EBE98DF0A4FEE5F0020A8F40
:100A0600E9CDF9EAFEEBFFEF89F0A4FCE5F0CE892B
:100A1600F0A42EFFE435F0CD89F0A42DFEE435F0E8
:100A26008067EF4E7005BD80D780C3EF8BF0A4AC16
:100A3600F0EE8BF0A42CFCE435F0F8EF8AF0A42C51
:100A4600E5F038FCE433CB8DF0A42CFCE5F03BF864
:100A5600EE8AF0A42CFCE5F038F8E433CF89F0A454
:100A66002CFCE5F038CF3400CE89F0A42FFFE5F05A
:100A76003EFEE433C98DF0A42EFEE5F039CD8AF0B2
:100A8600A42FFFE5F03EFEE43DFD33D0E0FB50072A
:100A96000BBB000F020C8AEC2CFCEF33FFEE33FE8F
:060AA600ED33FD020C62BD
:100AAC00020C8AEC5D046005E859047003020C80AA
:100ABC00120C4B580460F6EC4860F2EC7004FDFE2E
:100ACC00FF22C860DB2481C85009C398600250061D
:100ADC00020C879850CAF582E9294B4A7005AB8203
:100AEC00020C7675F0007C1A7880C3EF9BEE9AEDC1
:100AFC0099400DC3EF9BFFEE9AFEED99FDE842F095
:100B0C00DC23ACF0D0E0FFD0E0FED0E0FDAB8220E7
:100B1C00E7101BEB60BAEC2CFCEF33FFEE33FEED71
:100B2C0033FD020C62E803F830E705C0F075F00005
:100B3C00EF2FFFEE33FEED33FD40B830E7C280AA55
:100B4C0074F8CC6480CCC86480C8F58204604FC350
:100B5C00EB9FF5F0EA9E42F0E99D42F0E89C45F0EF
:100B6C00603C501DE5825FFFE582D313CB5BCBF479
:100B7C002B5582FB50280ABA002409B900200880A2
:100B8C001DE5825BFBE582D313CF5FCFF4C3132F3C
:100B9C005582FF50090EBE00050DBD00010CC3EBC4
:100BAC009FF5F0EA9E42F0E99D42F0E89C45F0602A
:090BBC0007CC4820E701B3EC224C
:100BC500ED33EC33600A047003BD8004ECB2E7FC3E
:010BD50022FD
:100BD60075F020800E75F010800575F0087D007E9A
:100BE600007F003392D530D503120EEEEC33401061
:100BF600EF33FFEE33FEED33FDEC33FCD5F0ED22A3
:0E0C0600E5F0247EA2D513CC92E7CDCEFF22DE
:100C1400EDD2E7CD33EC3392D524814006E4FFFED8
:100C2400FDFC22FCE4CFCECDCC24E0501174FF8037
:100C3400EDC3CC13CCCD13CDCE13CECF13CF0470D4
:070C4400F030D5DE020EEED8
:100C4B00E9D2E7C933E833F892D5EDD2E7CD33ECEF
:070C5B0033FC5002B2D52268
:100C6200EC30E7100FBF000C0EBE00080DBD0004F3
:100C72000BEB6014A2D5EB13FCED92E7FD2274FF9F
:100C8200FCFDFEFF22E480F8A2D574FF13FC7D80F8
:030C9200E480EF0C
:10188600021B70E493A3F8E493A34003F68001F2ED
:1018960008DFF48029E493A3F85407240CC8C33363
:1018A600C4540F4420C8834004F456800146F6DF32
:1018B600E4800B0102040810204080901F47E47E5C
:1018C600019360BCA3FF543F30E509541FFEE49327
:1018D600A360010ECF54C025E060A840B8E493A3EE
:1018E600FAE493A3F8E493A3C8C582C8CAC583CA19
:1018F600F0A3C8C582C8CAC583CADFE9DEE780BED1
:011F5400008C
:100C9500E709F608DFFA8046E709F208DFFA803E41
:100CA50088828C83E709F0A3DFFA8032E309F6082E
:100CB500DFFA8078E309F208DFFA807088828C8396
:100CC500E309F0A3DFFA806489828A83E0A3F6084A
:100CD500DFFA805889828A83E0A3F208DFFA804C24
:100CE50080D280FA80C680D4806980F280338010FB
:100CF50080A680EA809A80A880DA80E280CA803364
:100D050089828A83ECFAE493A3C8C582C8CCC583DB
:100D1500CCF0A3C8C582C8CCC583CCDFE9DEE780AB
:100D25000D89828A83E493A3F608DFF9ECFAA9F02A
:100D3500EDFB2289828A83ECFAE0A3C8C582C8CC80
:100D4500C583CCF0A3C8C582C8CCC583CCDFEADE99
:100D5500E880DB89828A83E493A3F208DFF980CCFB
:100D650088F0EF60010E4E60C388F0ED2402B404F4
:100D75000050B9F582EB2402B4040050AF2323459B
:060D85008223900CE573CF
:100D8B00BB010689828A83E0225002E722BBFE0266
:090D9B00E32289828A83E4932299
:100DA400BB010CE58229F582E5833AF583E0225004
:100DB40006E92582F8E622BBFE06E92582F8E2224E
:0D0DC400E58229F582E5833AF583E4932268
:100DD100E88FF0A4CC8BF0A42CFCE98EF0A42CFCC1
:100DE1008AF0EDA42CFCEA8EF0A4CDA8F08BF0A43F
:100DF1002DCC3825F0FDE98FF0A42CCD35F0FCEB9E
:100E01008EF0A4FEA9F0EB8FF0A4CFC5F02ECD3962
:0F0E1100FEE43CFCEAA42DCE35F0FDE43CFC22CF
:100E200075F008758200EF2FFFEE33FECD33CDCC89
:100E300033CCC58233C5829BED9AEC99E58298400C
:100E40000CF582EE9BFEED9AFDEC99FC0FD5F0D6E9
:100E5000E4CEFBE4CDFAE4CCF9A88222B800C1B913
:100E60000059BA002DEC8BF084CFCECDFCE5F0CB51
:100E7000F97818EF2FFFEE33FEED33FDEC33FCEB8A
:100E800033FB10D703994004EB99FB0FD8E5E4F945
:100E9000FA227818EF2FFFEE33FEED33FDEC33FC32
:100EA000C933C910D7059BE99A4007EC9BFCE99A26
:100EB000F90FD8E0E4C9FAE4CCFB2275F010EF2F6B
:100EC000FFEE33FEED33FDCC33CCC833C810D7076B
:100ED0009BEC9AE899400AED9BFDEC9AFCE899F8A6
:0E0EE0000FD5F0DAE4CDFBE4CCFAE4C8F92239
:0E0EEE00C3E49FFFE49EFEE49DFDE49CFC2215
:100EFC00EB9FF5F0EA9E42F0E99D42F0E89C45F04C
:010F0C0022C2
:100F0D00E493FC740193FD740293FE740393FF222A
:100F1D00E493F8740193F9740293FA740393FB222A
:100F2D00D083D082F8E4937012740193700DA3A353
:100F3D0093F8740193F5828883E473740293686067
:060F4D00EFA3A3A380DF67
:00000001FF
