:0300000002184B98
:0C184B00787FE4F6D8FD758166021892E3
:1020600079796473002D324E4C2B32472B3370003C
:102070002D324E4C2B3670002D324E4C4C2B3247AD
:102080002B32522B3450002D324E4C442B357200E3
:1023E4007DFE7BFF7E00020CEC7DFE7BFF7E000207
:0223F4000CECEF
:1015C10078247C007A2079657F0B1223E4782F7CC4
:1015D100007A2079707F081223E478377C007A2022
:1015E10079787F0F1223ED78467C007A2079877F06
:1015F100091223EDE4F5E1F5E2F5CBF5CC75C90867
:1016010075CA08F5B375B4FFF5B1F5B2F595F59660
:10161100F591F592F593F594121D42121961122379
:101621003B1220EE7BFF7A20796078597410F2E446
:10163100FDFF121AD0001224541222E11212A2123A
:101641001BB020CC097BFE7A00792412144320CDF3
:10165100097BFE7A00792F12144320B5097BFE7AAB
:1016610000793712144320C9D37BFE7A00794612E0
:04167100144380C8D6
:10002E000000000000000000002F0000000007008C
:10003E00070000147F147F1400242A7F2A12006206
:10004E0064081323003649552250000005030000B2
:10005E0000001C224100000041221C000014083E3A
:10006E0008140008083E0808000000A06000000800
:10007E000808080800006060000000201008040254
:10008E00003E5149453E0000427F40000042615112
:10009E004946002141454B31001814127F100027AC
:1000AE0045454539003C4A4949300001710905036F
:1000BE0000364949493600064949291E00003636A0
:1000CE000000000056360000000814224100001403
:1000DE0014141414000041221408000201510906E0
:1000EE0000324959513E007C1211127C007F494961
:1000FE004936003E41414122007F4141221C007F92
:10010E0049494941007F09090901003E4149497A9F
:10011E00007F0808087F0000417F41000020404119
:10012E003F01007F08142241007F40404040007F85
:10013E00020C027F007F0408107F003E4141413EC9
:10014E00007F09090906003E4151215E007F091911
:10015E0029460046494949310001017F0101003F0E
:10016E004040403F001F2040201F003F4038403F8E
:10017E0000631408146300070870080700615149F2
:10018E00454300007F41410000552A552A55000085
:10019E0041417F0000040201020400404040404003
:1001AE00000001020400002054545478007F48449B
:1001BE00443800384444442000384444487F0038D2
:1001CE005454541800087E0901020018A4A4A47CFB
:1001DE00007F080404780000447D400000408084C5
:1001EE007D00007F102844000000417F4000007C0D
:1001FE0004180478007C0804047800384444443819
:10020E0000FC242424180018242418FC007C080464
:10021E00040800485454542000043F444020003C3D
:10022E004040207C001C2040201C003C4030403CC4
:10023E00004428102844001CA0A0A07C0044645454
:10024E004C44141414141414000000000000000098
:10025E000000000000000000000000F80000000098
:10026E00000000333000000000100C06100C0600D9
:10027E00000000000000000040C07840C078400040
:10028E00043F04043F040400007088FC08300000A2
:10029E00001820FF211E0000F008F000E0180000FA
:1002AE0000211C031E211E0000F0088870000000B3
:1002BE001E2123241927211010160E000000000005
:1002CE000000000000000000000000E01804020022
:1002DE00000000071820400000020418E000000093
:1002EE000040201807000000404080F08040400091
:1002FE000202010F01020200000000F000000000E7
:10030E000101011F010101000000000000000000BA
:10031E0080B070000000000000000000000000002F
:10032E0000010101010101010000000000000000B8
:10033E000030300000000000000000008060180453
:10034E00006018060100000000E010080810E00030
:10035E00000F102020100F00001010F800000000F9
:10036E000020203F20200000007008080888700040
:10037E0000302824222130000030088888483000C0
:10038E000018202020110E000000C02010F80000E0
:10039E0000070424243F240000F808888808080079
:1003AE000019212020110E0000E01088881800008E
:1003BE00000F112020110E0000380808C838080060
:1003CE000000003F000000000070880808887000E0
:1003DE00001C222121221C0000E010080810E00061
:1003EE000000312222110F00000000C0C0000000EA
:1003FE00000000303000000000000080000000000F
:10040E000000806000000000000080402010080006
:10041E0000010204081020004040404040404000CF
:10042E0004040404040404000008102040800000AA
:10043E000020100804020100007048080808F000AF
:10044E000000003036010000C030C828E810E0007F
:10045E000718272423140B000000C038E00000000A
:10046E00203C23020227382008F888888870000074
:10047E00203F202020110E00C03008080808380048
:10048E00071820202010080008F808080810E000BF
:10049E00203F202020100F0008F88888E808100060
:1004AE00203F20202320180008F88888E808100034
:1004BE00203F200003000000C0300808083800006C
:1004CE0007182020221E020008F808000008F8086D
:1004DE00203F210101213F20000808F808080000F4
:1004EE000020203F2020000000000808F808080027
:1004FE00C08080807F00000008F888C0281808009F
:10050E00203F20012638200008F8080000000000D7
:10051E00203F20202020300008F8F800F8F80800CE
:10052E00203F003F003F200008F830C00008F808C8
:10053E00203F200007183F00E01008080810E000D8
:10054E000F10202020100F0008F808080808F000EF
:10055E00203F210101010000E01008080810E00012
:10056E000F18242438504F0008F8888888887000A7
:10057E00203F2000030C3020007088080808380047
:10058E000038202121221C00180808F8080818003D
:10059E000000203F2000000008F808000008F808BE
:1005AE00001F202020201F000878880000C838086F
:1005BE00000007380E010000F80800F80008F800E7
:1005CE00033C0700073C0300081868808068180881
:1005DE0020302C03032C30200838C800C8380800FF
:1005EE000000203F2000000010080808C83808004E
:1005FE002038262120201800000000FE02020200F2
:10060E000000007F40404000000C30C000000000A1
:10061E00000000010638C00000020202FE000000C9
:10062E00004040407F00000000000402020204006F
:10063E0000000000000000000000000000000000AC
:10064E008080808080808080000202040000000094
:10065E00000000000000000000008080808000008C
:10066E000019242222223F2008F80080800000007A
:10067E00003F112020110E0000000080808000003D
:10068E00000E112020201100000000808088F8004C
:10069E00000E112020103F2000008080808000007E
:1006AE00001F222222221300008080F088888818E2
:1006BE000020203F202000000000808080808000ED
:1006CE00006B94949493600008F800808080000082
:1006DE00203F210000203F2000809898000000005D
:1006EE000020203F2020000000000080989800008D
:1006FE0000C08080807F000008F8000080808000AD
:10070E00203F24022D302000000808F800000000D1
:10071E000020203F2020000080808080808080008C
:10072E00203F20003F20003F80800080808000001E
:10073E00203F210000203F200000808080800000AC
:10074E00001F202020201F008080008080000000DD
:10075E0080FFA12020110E0000000080808080000C
:10076E00000E112020A0FF808080800080808000FD
:10077E0020203F212000010000008080808080002A
:10078E000033242424241900008080E0808000009F
:10079E000000001F202000008080000000808000EC
:1007AE00001F202020103F2080808000008080804D
:1007BE0000010E30080601008080008000808080DD
:1007CE000F300C030C300F00008080008080800002
:1007DE000020312E0E31200080808000008080802D
:1007EE0080818E70180601000080808080808000DD
:1007FE000021302C2221300000000000807C0202FB
:10080E0000000000003F404000000000FF0000001C
:10081E0000000000FF0000000002027C80000000CB
:10082E000040403F000000000006010102020404E7
:08083E000000000000000000B2
:101B41001224087F02E4FDFCFE122408E4FDFC22BD
:101B5100F583E493FF7E007D017C0012240809E9EE
:101B610022785FE275F010A429F582E435F0F5835F
:101B7100E58222785BE2FF08E2FD122176E4F92298
:101B8100AC0712231E7F78121F5402237FE2FC0848
:101B9100E2FD08E2FE08E2FF22E2A4FF7806E22F5E
:0F1BA100FF08E2FD2224B0FFE433FEE4FDFC2246
:10231E00D2CB0000000000D2850000000000C28574
:0D232E000000000000C2CB000000000022F3
:1023A600D2CB0000000000C2850000000000D285EC
:0623B600000000000022FF
:0B237400121F5412237FAF04121F54ED
:0F237F00D2CB0000000000C2CB00000000002203
:101F5400C2CB0000000000E4FEAD07ED5480B48065
:101F640009D28500000000008002C2850000000044
:101F740000EF25E0FFD2CB0000000000C2CB000040
:081F84000000000EEEB408D1CC
:011F8C002232
:0B242900121B81E4FF1223740223A6A3
:0B243400121B817F401223740223A6BC
:10240800AB07AA06ED4C6003022434AF031224295B
:0124180022A1
:10217600A907ED121BA6122408E9240254F0C45440
:102186000F7E004410FFE4FDFC122408E92402FF40
:0C2196007E00EF540FFFE4FDFC02240863
:1020EE00E4F9E9121BA6121B417F10FE122408E42C
:1020FE00784FF27D017C00E4FFFE122408784FE257
:0D210E0004F2E2C3948040EB09E9B408D567
:01211B0022A1
:0719DE00785CEDF218EFF256
:1019E500E4785FF2F9EB24E0F2EFD3947F4009E469
:1019F500785BF208E22402F2785EE264107030123D
:101A05001B74121B622456F582E5833402121B51A6
:101A1500B408EF785BE2FF08E204121B7A121B623E
:101A2500245EF582E5833402121B51B408EF2212BD
:101A35001B74785FE275F006A4242EF582E5F03478
:101A450000F583E58229F582E43583121B51B4063E
:011A5500E1AF
:011A5600226D
:071F13007800EFF208EDF287
:101F1A0008120ED8000000017801E2FF14F2EF6007
:101F2A002308E2FB08E2F908E2FA08E2CBF8C0006B
:101F3A007800E2FFE4FCFDFED000120D7A7802126E
:091F4A000ECC80D47802121B8E2B
:011F5300226B
:071675007806EFF208EDF228
:10167C00E47811F2780DE27810B410057408F28059
:10168C00037406F2E4780EF2780CE2FF780EE2FEB8
:10169C00C39F5076C3EF9E14FD7F0A121F13C00424
:1016AC00A905AA06AB077808121B8ED000120E05EE
:1016BC00E47B0AFAF9F8120E05780FEBF27811E2D6
:1016CC007026780CE214FF780EE2FEC39F501908C6
:1016DC00E27010088EF0121B9A780DE2785EF27BA5
:1016EC0020801C78117401F2780EE2FF78108FF0D4
:1016FC00121B9A780FE22430FB780DE2785EF2121E
:0A170C0019DE780EE204F2021694D2
:0117160022B0
:101AD0007854EFF208EDF208EBF208EAF208E9F2C6
:101AE000E4785AF27856E2FB08E2FA08E2F9785A0A
:101AF000E2F582758300120D2BFB60447854E2FFFF
:101B000008E2FD7859E2785EF21219DE7859E2FFB8
:101B10007854B40806E22406F28004E22408F2783D
:101B200054E2D394784012E4F2EFB4080608E204D9
:101B3000F280067855E22402F2785AE204F280A498
:011B40002282
:10196100E4FDFC7FAEFE121B417F10FE1224087FB6
:1019710040121B467FB0121B497F81121B497F8099
:10198100121B497FA1121B497FA6121B497FA81276
:101991001B497F3F121B497FC8121B497FD3121B72
:1019A10049FF121B497FD5121B497F80121B497FBA
:1019B100D9121B497FF1121B497FDA121B497F1291
:1019C100121B497FDB121B497F30121B497F8D128D
:0D19D1001B497F14121B497FAFFE02240842
:03246A00562F00EA
:03244A00014B0043
:101ECC007850120ECC7850E2FC08E2FD08E2FE08D5
:101EDC00E2FF22F8E62430FF74312512F8A607053C
:101EEC00120510227854E2FB08E2F908E2FA08E243
:101EFC00CBF822AF1EAE1DAD1CAC1B22E4FBFA12BC
:071F0C00093E7854020ECCDF
:101C1A00EF1FAC0670011E4C6059E4FDFC00000089
:101C2A0000000000000000000000000000000000AA
:101C3A00000000000000000000000000000000009A
:101C4A00000000000000000000000000000000008A
:101C5A00000000000000000000000000000000007A
:101C6A0000000000000DBD00010CED64C84C70AD11
:041C7A0000809D0049
:011C7E002243
:03002B0002202F81
:10202F00C0E0C0D075D00853BCEFAFBD752F008F87
:10203F0030533003752F00E530753000F52FAFBEEC
:10204F00EF2530F530E4352FF52FD200D0D0D0E08A
:01205F00324E
:06246400EF4488F5BC22E4
:10150400EFB408005047901511F8282873021529E4
:1015140002152E02153302153802153D021542023A
:10152400154702154C75910180267591028021752D
:101534009104801C75910880177591108012759123
:1015440020800D759140800875918080037591FF0E
:10155400E4F5927590FFEFB408005047901567F8D2
:1015640028287302157F02158402158902158E023C
:10157400159302159802159D0215A2759D018026EA
:10158400759D028021759D04801C759D08801775CA
:101594009D108012759D20800D759D408008759D5D
:1015A400808003759DFFE4F5BDEF4488F5BC7F02A0
:0D15B4007E00121C1A439720D2ADC2002207
:051154007854120ECCDE
:10115900E4F512FFFEFDFC121EF0120AE474315090
:10116900132512F8762D7854121ED3798078BF1280
:101179001F0880052512F8762B05127854121ED304
:10118900120B9B8F1E8E1D8D1C8C1B7854121ED327
:10119900C004C005C006C007121EFFE4120B5DA8FB
:1011A90004A905AA06AB07D007D006D005D00412BA
:1011B90008497854120ECCE4F511E47B0AFAF9F8DF
:1011C900121EFF120E05AF0374132511F8A607E4CA
:1011D900FFFEFDFCAB1EAA1DA91CA81BC3120EBB5A
:1011E9007008E511701C05118018121EFFE47B0AB6
:1011F900FAF9F8120E058F1E8E1D8D1C8C1B051118
:1012090080B8851110E510C394085058E4FFFE7D9D
:10121900207C41121EF012093E120B9B74132510FB
:10122900F8A6077854121ED379207841121F08783E
:1012390054121ED3C004C005C006C007741325107C
:10124900F8E6FCE4120B67A804A905AA06AB07D0C7
:1012590007D006D005D0041208497854120ECC05DF
:101269001002120EE4F510E510C39511500EC3E5F6
:10127900119510FF74122F121EDF80EB74312512A5
:10128900F8762E0512851110E510C39408500974DB
:08129900132510121EDF80F086
:0112A100222A
:0F1E39007812120ECC7816EBF208EAF208E9F2F2
:101E4800E4FF0874FEF2087400F2087412F27819BC
:101E5800E2FB0808E2F92401F218E2FA3400F2126F
:101E68000D12FE7816E2FB08E2FA08E2F98F827595
:0B1E78008300EE120D580FEFB404D3EE
:011E8300223C
:1012A200784F74FFF208120ED8000000007F071278
:1012B20015047F071224642000030080FAC200781C
:1012C2004BE625E0243BF8A62F08A630E4F52FF5DF
:1012D20030784FF2784FE2FFC39408501AEF25E0BE
:1012E200243BF8E6FE08E62530F530EE352FF52FE3
:1012F200784FE204F280DDE530AE2F7803CEC313DF
:10130200CE13D8F9F5308E2FAC2FFDE4120B6212FA
:101312001ECCE4FBFA79A0784012093E121ECCE4FE
:10132200FBFAF97844120A47121ECC121154784F74
:101332007401F2784FE2FE75F008A4FF74312EF8C2
:10134200E6FB785E7410F27D061219DE7F017E00E4
:10135200121C1A784FE204F2E2C3940540D5007BD6
:10136200FF7A24796A78597410F27D067F28121A5E
:08137200D0784B06E65407F6A3
:01137A002250
:0B243F00463A30303030303030300092
:06244D00C1300221000075
:10214900EF3395E0FE781FE6C39FEE6480F8748054
:102159009822F404C36480F5F0781FE6648095F052
:0D216900227B007A00794C78597410F22224
:10238E00E4781FF6438E80F589758A48758CF4C201
:08239E008DD28CD2A9D2AF222E
:10209000D3EF648094E440027F64C3EF6480941CB7
:1020A00050027F9CD3ED648094E440027D64C3EDD4
:0F20B0006480941C50027D9C8F23AF058F2422E7
:09245400E4FDFF12209002238E2A
:101BB000784C7C007D007BFF7A24793F7E007F0B90
:101BC000120CECAF2B7E02EF30E708744C2EF87647
:101BD000318006744C2EF87630EF25E0FF0EEEB41F
:101BE0000AE512216AE4FDFF121AD0784C7642AF62
:101BF0002A7E02EF30E708744C2EF87631800674A6
:101C00004C2EF87630EF25E0FF0EEEB40AE51221F7
:091C10006A7D02E4FF121AD00003
:011C190022A8
:10211C00E4FDFF122090E4F521F522D230D3E52224
:10212C00941EE52194005012D2C7D2C0D2C2D2C1A3
:0D213C00D2C5D2C6D2C4D2C380E3C23022C5
:03000B0002137B62
:10137B00C0E0C0F0C0D075D00820300675210075D4
:10138B002200781F06E6C39464400F303008052214
:10139B00E52270020521781F7600C3E52364809453
:1013AB00804011AF23122149501BD2C5C2C6D2C4F3
:1013BB00C2C38019E52312215B500AC2C5D2C6C233
:1013CB00C4D2C38008C2C5C2C6C2C4C2C3C3E5244B
:1013DB00648094804011AF24122149501BD2C7C2A4
:1013EB00C0D2C2C2C18019E52412215B500AC2C708
:1013FB00D2C0C2C2D2C18008C2C7C2C0C2C2C2C19F
:10140B00852827852928E5F8547FF5294527552870
:10141B00FFE52755294FF52B852D2C852E2DE5E83E
:10142B00547FF52E452C552DFFE52C552E4FF52AC7
:08143B0000D0D0D0F0D0E03267
:10241900538EFB75D7E775D6FF438E10438F042281
:02246D00043C2D
:1020BF00784FE2FB08E2FA08E2F9227F1E7E000267
:1020CF00235C90246EE493FF7854E2C39F227F50E9
:0F20DF007E0002235C6480F5F0E6648095F022B9
:040F17007854EFF229
:100F1B00E2A2E713784FF6E52B20E30620E203303D
:100F2B00E4047F0180027F001223F67854E2FF3045
:100F3B0031047E0180027EFFEE8FF0A47854F2C361
:100F4B00648094805004AF2A8002AF2BEF120EF115
:100F5B000F98010FA1020F9B030FAA040FA4060FFA
:100F6B009E070FB0080FAD0C0FA70E0FB9100FB3E4
:100F7B00180FB01C0FC2200FBC300FB6380FC84073
:100F8B000FC5600FBF700FB07F00000FCB02101F9B
:100F9B0002102502102B02103102103702103D02F5
:100FAB00104302104902105302105902105F021035
:100FBB006502106B02107102107702107D02108314
:100FCB007854E2D3648094804004AF2A8002AF2B24
:100FDB00EF120EF1108900101F01103102102503C2
:100FEB00104304103706102B0710530810490C1030
:100FFB003D0E106510105918104F1C107720106BF8
:10100B0030105F38108340107D6010717010517F6D
:10101B000000108E784C7608806E784C76078068CE
:10102B00784C76068062784C7605805C784C76043A
:10103B008056784C76038050784C7602804A784CF8
:10104B007601804480028000E4784CF6803A784C3C
:10105B0076FF8034784C76FE802E784C76FD802897
:10106B00784C76FC8022784C76FB801C784C76FA98
:10107B008016784C76F98010784C76F8800A12211D
:10108B001C8005E4784CF622784CE6FFC378639617
:10109B00FE784FE6FDEE8DF0A4FE90246DE493FDFB
:1010AB00EF8DF0A42EFF7854E2FEC39F784EF6EE40
:1010BB002FFF18F618E67863F6A3E493F9FD7C008E
:1010CB007854E2FEFB3395E0FAEB2DFDEC3AFCEFA6
:1010DB00FB3395E0FAD3EB9DEC6480F8EA648098DF
:1010EB004005EE29784DF6E9FF7E007854E2FDFBD2
:1010FB003395E0FAEB2FFFEE3AFE784EE6FB339595
:10110B00E0FAD3EB9FEE6480F8EA648098400B9092
:10111B00246EE493FFED2F784EF61220D1FFC378A7
:10112B004D1220E45002A607C3EF784E1220E45074
:0D113B00061220D1784EF61211491211490A
:0C11480022784DE6FF08E6FD1220902200
:042358007F327E0052
:10235C00E4F521F522D230D3E5229FE5219E40F70A
:08236C00C230E4F521F5222244
:101FFA00303114E52B30E50930E1067E007F01809F
:10200A00187E007F008012E52A30E50930E1067E5D
:10201A00007F0180047E007F00EF4E60077F14126C
:05202A000F1780CC221D
:1018D70078647609E4F521F522C2307864E660463B
:1018E7007F28120F17121BB0303114E52B30E50992
:1018F70030E1067E007F0180187E007F008012E5C0
:101907002A30E50930E1067E007F0180047E007FF2
:1019170000EF4E60C6AC21AD22121945D230786473
:1019270016121FFA80B5C230E522AE217803CEC366
:0E19370013CE13D8F9FDAC0612194502211C7F
:10194500E4120B62121E84E4FF1223F6E4FF122355
:0C195500F67F801223F67F7F1223F6221B
:1021A20012211C7DF67F0A1220901220CAE52B20F4
:1021B200E3FB20E2F820E4F5E52B20E30620E2032E
:0621C20030E4F502211CCF
:1021C80012211C7D0A7FF61220901220CAE52B20CE
:1021D800E3FB20E2F820E4F5E52B20E30620E20308
:0621E80030E4F502211CA9
:1017170012211C7DF67F0A122090E52B20E3FB2087
:10172700E2F820E4F57D0A7F0A122090E52B20E3FA
:101737000620E20330E4F5E52B20E3FB20E2F82066
:10174700E4F512211C1223BC7DF67FF6122090E5EA
:101757002B20E30620E20330E4F5E52B20E3FB2012
:10176700E2F820E4F5E52B20E30620E20330E4F578
:1017770012211C303114E52B30E50930E1067E00DB
:101787007F0180187E007F008012E52A30E509304E
:10179700E1067E007F0180047E007F00EF4E700728
:0A17A7007F0A120F1780CC02211CEC
:1017B10012211C7D0A7FF6122090E52B20E3FB20ED
:1017C100E2F820E4F57D0A7F0A122090E52B20E360
:1017D1000620E20330E4F5E52B20E3FB20E2F820CC
:1017E100E4F512211C1223BC7DF67FF6122090E550
:1017F1002B20E30620E20330E4F5E52B20E3FB2078
:10180100E2F820E4F5E52B20E30620E20330E4F5DD
:1018110012211C303114E52B30E50930E1067E0040
:101821007F0180187E007F008012E52A30E50930B3
:10183100E1067E007F0180047E007F00EF4E70078D
:0A1841007F05120F1780CC02211C56
:041CE1007852EFF254
:101CE50008F27853E2FF60526401600C18E2FF08C5
:101CF500E26F60047F2880027F0A120F17121BB063
:101D0500303114E52B30E50930E1067E007F018096
:101D1500187E007F008012E52A30E50930E1067E55
:101D2500007F0180047E007F00EF4E60B57853E2AE
:0D1D350014F2E26005121FFA80A802211CC2
:10144300784FEBF208EAF208E9F21220BF120D120C
:10145300FF7003021503120EF114C32B14C72D14CE
:10146300E44414DA47148F4C14CB4E14D55014A90A
:101473005214DF5514846C14D070148A7200001453
:10148300E91217B10214F512171780661220BF90E4
:10149300FFFF120D2BB44C09B2311221C8B23180B7
:1014A300511221C8804C1220BF90FFFF120D2BB4A4
:1014B3005209B2311221A2B23180371221A28032F5
:1014C300D231802EC231802A1223008025121D9B27
:1014D3008020121FC4801B121A5780161223BC804F
:1014E3001112000E800C1220BF120D1224D0FF1215
:1014F3001CE17851E22401F218E23400F202144DA7
:0115030022C5
:1022E1001223BC7F507E0012229D7F647E00122249
:0F22F1007A7FDC7E001221EE7F467E00022257AC
:102300007F967E0012227A1220CA7FFA1221EE12E4
:0E23100020CA7FC81222577F327E0002235C53
:10000E007F577E001222347FCA7E001222117F2873
:05001E007E0002235CDE
:1023BC007F967E001222347F967E001222117F2897
:0523CC007E0002235C0D
:1022C00012245D7F967E0012227A1223587F5012CC
:1022D00021EE1223587F501222577F507E00022396
:0122E0005CA1
:101D9B0012211C7FFA7E0012227A7F3C7E001223D6
:101DAB005C7FC81221EE7F3C7E0012235C7F961273
:101DBB0021EE1220DD7F641221EE1220DD7F321224
:101DCB0021EE7F467E0012235C7FAF1222577F6489
:0F1DDB007E0012235C12245D7F327E0002235CA7
:101FC400C23130940BD2317F0A120F17C23180F222
:101FD40012211C7FFA7E0012227A1223587F4612A5
:101FE40021EE1223587FC81222571220DD12245DDD
:061FF40012235802230035
:070003007FBA7E0002229D7E
:07245D007F7D7E0002229D3D
:101A5700D2311222C0303114E52B30E50930E106CE
:101A67007E007F0180187E007F008012E52A30E526
:101A77000930E1067E007F0180047E007F00EF4E83
:101A870060077F14120F1780CC303114E52B30E537
:101A97000930E1067E007F0180187E007F008012FA
:101AA700E52A30E50930E1067E007F0180047E00EB
:101AB7007F00EF4E70077F28120F1780CC120003AC
:091AC700121FFA12211C02230077
:0400260000000000D6
:101C7F00EF1FAC0670011E4C6056E47865F600004D
:101C8F000000000000000000000000000000000045
:101C9F000000000000000000000000000000000035
:101CAF000000000000000000000000000000000025
:101CBF000000000000000000000000000000000015
:101CCF00000000000000786506E6B4C8B10080A0EF
:011CDF000004
:011CE00022E1
:03002300021DEAD1
:0B1DEA00C0E0C0D075D000C000C007F2
:101DF500309831D22DC2987857A699E6FFB43F06A0
:101E050075C76075990A302C097862E6062458F87A
:101E1500A607EFB4AA06D22C78627600EFB4BB040D
:0B1E2500C22CC22D309902C299C22DC0
:091E3000D007D000D0D0D0E03280
:1023F600202DFDEF30D004D29B8002C29BD22DF55A
:02240600992219
:1023D100120D12FF600C1223F6740129F9E43AFA86
:0323E10080EE2269
:051E8400781C120ECCD9
:101E890078207C007DFE7BFF7A0079267E007F0426
:101E9900120CEC781CE2FC08E2FD08E2FE08E2FF05
:101EA90008120ECCE47866F67866E6FFC39404500F
:101EB90011C374039F2420F8E2FF1223F678660603
:021EC90080E6B1
:011ECB0022F4
:10233B007598D0438E40538EFE53890F758BF37572
:0D234B008DFCC2ABD28EC22CD2ACD2AF2220
:101F8D00AF82AE83E4FCFD7BD07A07F9F8C3020E75
:101F9D00A5E4F0A304F0A3E4F0A3F0A3228F828EB6
:101FAD0083E582458322EEF0A3EFF053BA7F2243FF
:071FBD00BA80AE83AF82225F
:101D420053803F53A07143BA8012241990FFF2745A
:101D520010F090FFF07407F0A374D0F090FF00121F
:101D62001F9E7408F090FF10121F9EF090FF201229
:101D72001F9FF090FF30121F9FF090FF40121F9F95
:101D82007408F090FF50121F9E7408F0E4F5F1758C
:091D9200F53F43F58053BA7F22AE
:1021EE00121FAA700653F5FEC2A722121F8D70068B
:1021FE0053F5FED2A722121FBC90FF00121FB3434D
:03220E00F50122B5
:10221100121FAA700653F5FDC2A122121F8D70066E
:1022210053F5FDD2A122121FBC90FF10121FB34320
:03223100F5022291
:10223400121FAA700653F5FBC2A222121F8D70064C
:1022440053F5FBD2A222121FBC90FF20121FB343EE
:03225400F504226C
:10225700121FAA700653F5F7C2A322121F8D70062C
:1022670053F5F7D2A322121FBC90FF30121FB343BE
:03227700F5082245
:10227A00121FAA700653F5EFC28722121F8D70062D
:10228A0053F5EFD28722121FBC90FF40121FB343AF
:03229A00F510221A
:10229D00121FAA700653F5DFC28622121F8D70061B
:1022AD0053F5DFD28622121FBC90FF50121FB3438D
:0322BD00F52022E7
:10084600020C07E86480F8E933E83360110460F0CD
:10085600ED33EC337009E8FCE9FDEAFEEBFF220418
:1008660060DED3EB9FEA9EE99DE8C2E78CF0C2F713
:1008760095F0400CE8CCF8E9CDF9EACEFAEBCFFBDF
:10088600120BD285D0F05804700320D5B3E804705B
:10089600075002B2D5020C1192D5EC0460F7E4CCF5
:1008A600C0E0C398F8603B94186008400DD0E0FBA8
:1008B600020BE9E4FBFAC9FC8028E830E406E4C947
:1008C600FBE4CAFCE830E305E4C9CACBFCE85407FC
:1008D6006010F8C3E913F9EA13FAEB13FBEC13FC07
:1008E600D8F130F52FC3E49CFCEF9BFFEE9AFEEDAA
:1008F60099FDD0E0FBEF4E4D4C701222DB03020C4B
:100906000EEC2CFCEF33FFEE33FEED33FDED30E75E
:10091600EB020BE9EF2BFFEE3AFEED39FDD0E0FBE3
:1009260050130BBB0003020C11ED13FDEE13FEEF8B
:0809360013FFEC13FC020BE9B6
:10093E00EC4D6011E8497017ED33EC3304600DE4B3
:10094E00FCFFFEFD22E933E8330470F8020C0712B7
:10095E000BD258046009E4CC2481500628500902B9
:10096E000C11284003020C0EC0E0EB4A7044B98013
:10097E0006D0E0FB020BFDEF4E701CBD8008EBFFB6
:10098E00EAFEE9FD80EBE98DF0A4FEE5F0020A2710
:10099E00E9CDF9EAFEEBFFEF89F0A4FCE5F0CE8994
:1009AE00F0A42EFFE435F0CD89F0A42DFEE435F051
:1009BE008067EF4E7005BD80D780C3EF8BF0A4AC7F
:1009CE00F0EE8BF0A42CFCE435F0F8EF8AF0A42CBA
:1009DE00E5F038FCE433CB8DF0A42CFCE5F03BF8CD
:1009EE00EE8AF0A42CFCE5F038F8E433CF89F0A4BD
:1009FE002CFCE5F038CF3400CE89F0A42FFFE5F0C3
:100A0E003EFEE433C98DF0A42EFEE5F039CD8AF01A
:100A1E00A42FFFE5F03EFEE43DFD33D0E0FB500792
:100A2E000BBB000F020C11EC2CFCEF33FFEE33FE70
:060A3E00ED33FD020BE99F
:100A4400020C11EC5D046005E859047003020C0704
:100A5400120BD2580460F6EC4860F2EC7004FDFE10
:100A6400FF22C860DB2481C85009C3986002500685
:100A7400020C0E9850CAF582E9294B4A7005AB82E4
:100A8400020BFD75F0007C1A7880C3EF9BEE9AEDA3
:100A940099400DC3EF9BFFEE9AFEED99FDE842F0FD
:100AA400DC23ACF0D0E0FFD0E0FED0E0FDAB822050
:100AB400E7101BEB60BAEC2CFCEF33FFEE33FEEDDA
:100AC40033FD020BE9E803F830E705C0F075F000E8
:100AD400EF2FFFEE33FEED33FD40B830E7C280AABE
:100AE40074F8CC6480CCC86480C8F58204604FC3B9
:100AF400EB9FF5F0EA9E42F0E99D42F0E89C45F058
:100B0400603C501DE5825FFFE582D313CB5BCBF4E1
:100B14002B5582FB50280ABA002409B9002008800A
:100B24001DE5825BFBE582D313CF5FCFF4C3132FA4
:100B34005582FF50090EBE00050DBD00010CC3EB2C
:100B44009FF5F0EA9E42F0E99D42F0E89C45F06092
:090B540007CC4820E701B3EC22B4
:100B5D0075F020800E75F010800575F0087D007E13
:100B6D00007F003392D530D503120E97EC33401031
:100B7D00EF33FFEE33FEED33FDEC33FCD5F0ED221C
:0E0B8D00E5F0247EA2D513CC92E7CDCEFF2258
:100B9B00EDD2E7CD33EC3392D524814006E4FFFE52
:100BAB00FDFC22FCE4CFCECDCC24E0501174FF80B1
:100BBB00EDC3CC13CCCD13CDCE13CECF13CF04704E
:070BCB00F030D5DE020E97A9
:100BD200E9D2E7C933E833F892D5EDD2E7CD33EC69
:070BE20033FC5002B2D522E2
:100BE900EC30E7100FBF000C0EBE00080DBD00046D
:100BF9000BEB6014A2D5EB13FCED92E7FD2274FF19
:100C0900FCFDFEFF22E480F8A2D574FF13FC7D8071
:030C1900E480EF85
:101857000215C1E493A3F8E493A34003F68001F2D1
:1018670008DFF48029E493A3F85407240CC8C33392
:10187700C4540F4420C8834004F456800146F6DF61
:10188700E4800B010204081020408090244AE47E83
:10189700019360BCA3FF543F30E509541FFEE49356
:1018A700A360010ECF54C025E060A840B8E493A31D
:1018B700FAE493A3F8E493A3C8C582C8CAC583CA48
:1018C700F0A3C8C582C8CAC583CADFE9DEE780BE00
:012453000088
:100C1C00E709F608DFFA8046E709F208DFFA803EBA
:100C2C0088828C83E709F0A3DFFA8032E309F608A7
:100C3C00DFFA8078E309F208DFFA807088828C830F
:100C4C00E309F0A3DFFA806489828A83E0A3F608C3
:100C5C00DFFA805889828A83E0A3F208DFFA804C9D
:100C6C0080D280FA80C680D4806980F28033801074
:100C7C0080A680EA809A80A880DA80E280CA8033DD
:100C8C0089828A83ECFAE493A3C8C582C8CCC58355
:100C9C00CCF0A3C8C582C8CCC583CCDFE9DEE78025
:100CAC000D89828A83E493A3F608DFF9ECFAA9F0A4
:100CBC00EDFB2289828A83ECFAE0A3C8C582C8CCFA
:100CCC00C583CCF0A3C8C582C8CCC583CCDFEADE13
:100CDC00E880DB89828A83E493A3F208DFF980CC75
:100CEC0088F0EF60010E4E60C388F0ED2402B4046E
:100CFC000050B9F582EB2402B4040050AF23234515
:060D0C008223900C6C73C1
:100D1200BB010689828A83E0225002E722BBFE02DF
:090D2200E32289828A83E4932212
:100D2B00BB010CE58229F582E5833AF583E022507D
:100D3B0006E92582F8E622BBFE06E92582F8E222C7
:0D0D4B00E58229F582E5833AF583E49322E1
:100D5800F8BB010DE58229F582E5833AF583E8F0D1
:100D6800225006E92582C8F622BBFE05E92582C87D
:020D7800F22265
:100D7A00E88FF0A4CC8BF0A42CFCE98EF0A42CFC18
:100D8A008AF0EDA42CFCEA8EF0A4CDA8F08BF0A496
:100D9A002DCC3825F0FDE98FF0A42CCD35F0FCEBF5
:100DAA008EF0A4FEA9F0EB8FF0A4CFC5F02ECD39BA
:0F0DBA00FEE43CFCEAA42DCE35F0FDE43CFC2227
:100DC90075F008758200EF2FFFEE33FECD33CDCCE1
:100DD90033CCC58233C5829BED9AEC99E582984064
:100DE9000CF582EE9BFEED9AFDEC99FC0FD5F0D641
:100DF900E4CEFBE4CDFAE4CCF9A88222B800C1B96B
:100E09000059BA002DEC8BF084CFCECDFCE5F0CBA8
:100E1900F97818EF2FFFEE33FEED33FDEC33FCEBE1
:100E290033FB10D703994004EB99FB0FD8E5E4F99C
:100E3900FA227818EF2FFFEE33FEED33FDEC33FC89
:100E4900C933C910D7059BE99A4007EC9BFCE99A7D
:100E5900F90FD8E0E4C9FAE4CCFB2275F010EF2FC2
:100E6900FFEE33FEED33FDCC33CCC833C810D707C2
:100E79009BEC9AE899400AED9BFDEC9AFCE899F8FD
:0E0E89000FD5F0DAE4CDFBE4CCFAE4C8F92290
:0E0E9700C3E49FFFE49EFEE49DFDE49CFC226C
:100EA500EB9FF5F0EA9E42F0E99D42F0EC6480C8C4
:060EB50064809845F02264
:100EBB00EB9FF5F0EA9E42F0E99D42F0E89C45F08D
:010ECB002204
:0C0ECC00ECF208EDF208EEF208EFF22262
:100ED800D083D082E493F208740193F208740293E9
:090EE800F208740393F274047320
:100EF100D083D082F8E4937012740193700DA3A390
:100F010093F8740193F5828883E4737402936860A3
:060F1100EFA3A3A380DFA3
:00000001FF
